:020000040800F2
:10000000E806002089010008A71100086F10000809
:10001000A51100088F020008D1140008000000009C
:10002000000000000000000000000000AB1100080C
:100030009102000800000000A91100082912000820
:10004000A3010008A3010008A3010008A301000800
:10005000A3010008A3010008930200089902000808
:10006000A3010008A3010008A3010008A3010008E0
:10007000A3010008A3010008A3010008A3010008D0
:10008000A3010008A3010008A3010008A3010008C0
:10009000A3010008A3010008A30100089F020008B3
:1000A000A3010008A3010008A3010008A3010008A0
:1000B000A3010008A3010008A3010008A301000890
:1000C000A3010008A3010008A3010008A301000880
:1000D000A3010008C5140008A3010008A30100083B
:1000E000A3010008A3010008A301000800F002F822
:1000F00000F03AF80AA090E8000C82448344AAF188
:100100000107DA4501D100F02FF8AFF2090EBAE885
:100110000F0013F0010F18BFFB1A43F0010318473B
:100120000017000020170000103A24BF78C878C1DB
:10013000FAD8520724BF30C830C144BF04680C60ED
:10014000704700000023002400250026103A28BF35
:1001500078C1FBD8520728BF30C148BF0B60704739
:100160001FB51FBD10B510BD00F058F81146FFF7C0
:10017000F7FF01F0D9F900F076F803B4FFF7F2FFCA
:1001800003BC00F07DF8000009488047094800479B
:10019000FEE7FEE7FEE7FEE7FEE7FEE7FEE7FEE737
:1001A000FEE7FEE704480549054A064B7047000094
:1001B00085120008ED000008E8000020E806002095
:1001C000E8020020E80200204FF0000200B51346CC
:1001D00094469646203922BFA0E80C50A0E80C5067
:1001E000B1F12001BFF4F7AF090728BFA0E80C5018
:1001F00048BF0CC05DF804EB890028BF40F8042B11
:1002000008BF704748BF20F8022B11F0804F18BF7D
:1002100000F8012B7047704770477047754600F033
:100220002BF8AE4605006946534620F00700854688
:1002300018B020B5FFF7B6FFBDE820404FF000062C
:100240004FF000074FF000084FF0000BAC46ACE851
:10025000C009ACE8C009ACE8C009ACE8C00921F0AD
:1002600007018D46704710B50446AFF30080204665
:10027000BDE81040FFF781BF004870471000002024
:1002800001491820ABBEFEE7260002007047FEE7DA
:100290007047012000F0B0B8022000F0ADB84FF474
:1002A000007000F0A9B8EFF3108072B6FEE710B549
:1002B00090F82110022912D10168D0E90F230C68AF
:1002C00024F00E040C600C6824F001040C60012181
:1002D00001FA03F3536080F82110002102E00421A9
:1002E00081630121002280F82020084610BD000013
:1002F000B0B590F8211002291CD103681F4C0122CF
:100300001968A34221F00E011960196821F001015A
:100310001960194912D01A4CA34211D0194CA342AA
:1003200010D0194CA34210D0184CA34210D14FF456
:10033000803415E00421816301211BE001240FE0DA
:1003400010240DE04FF480740AE04FF4805407E06D
:1003500001F168054FF08074AB4208BF4FF4801480
:100360000C60002180F8201080F82120426B0AB137
:10037000904700210846B0BD04000240080002403A
:100380001C0002403000024044000240580002407D
:10039000B0B5044600F00EF9164D012C28600FD0C0
:1003A000022C17D0B4F5007F1DD16968401AC92806
:1003B00019D3A8680828CCBF00200130A86012E03B
:1003C0006968401AC9280ED309200021022201F0D1
:1003D000F9F808E06968401AC92804D3042000210C
:1003E000012201F0ABF8A86800F0E0FE2868686020
:1003F000B0BD00BF7000002003490A68024208BF78
:1004000070470860FFF7C4BF140401402DE9FC4F9A
:10041000594A04234FF0000B4FF001084FF00F0E24
:100420004FF000090025904208BF032300930B689A
:1004300033FA05F208BFBDE8FC8F08FA05F2134253
:1004400000F095804F68032F16D9112F24D0122F5A
:1004500026D04C4B9F4213D04B4B9F4210D04B4B5E
:100460009F420DD04A4B9F420AD04A4B9F4207D031
:10047000494B9F4204D020E0DFE807F00216191D27
:100480008B6833B1012B14BF426102614FF0080940
:1004900013E04FF0040910E0CB6803F104090CE00D
:1004A000CB6803F10C0908E0D1F80C9005E0CB68AB
:1004B00003F1080901E04FF000095B460646082DEC
:1004C00028BF203B28BF043637680EFA03F409FA28
:1004D00003F327EA040423433360CB79DB0646D5D4
:1004E000604C264E0BF00C0C2368A6F57E7643F08C
:1004F00001032360236803F0010301930EFA0CF358
:10050000019CAC0856F8247027EA030A234B984252
:1005100008D0234B984207D0224B9842009B08BF3B
:10052000022302E0002300E0012303FA0CF343EA74
:100530000A0346F82430114C114E4F68FB02A368A1
:1005400054BF93431343A360BB02336854BF934328
:1005500013433360BB03636854BF93431343636027
:10056000FB03236854BF23EA02021A4322600BF103
:10057000040B01355BE700BF00140140000401409B
:100580000C040140000011100000121000002110A6
:10059000000022100000311000003210000801405D
:1005A000000C014000100140002A08BF090401614D
:1005B0007047000005480068704700BF1A480349AB
:1005C00000780A6810440860704700BFE00000200F
:1005D00080B58E48016841F010010160032000F0F1
:1005E0006FF80F2000F004F800F020F8002080BD24
:1005F00070B50D4E04464FF47A713078B1FBF0F0CF
:100600008F490968B1FBF0F000F0E2FA01250F2CE8
:1006100008D838B94FF0FF3021460022002500F0FD
:1006200033F87460284670BD0000002082B00D4889
:100630000222016841F001010160016801F001013D
:1006400001910199416841F080514160406800F09A
:100650008050009000980448016862F31A610160BC
:1006600002B070471810024004000140002808D46E
:1006700000F01F010122400902FA01F1014A42F88B
:100680002010704700E100E070B5134B4FF0FF35CC
:100690001B68C3F30223DC1E83F0070338BF00246A
:1006A000042B28BF042305FA04F605FA03F3B2432A
:1006B0009943A1401143BDE8704000F00BBF00BF5B
:1006C00005494FF6FF030A681A4060F30A220348FF
:1006D00010430860704700BF0CED00E00000FA0511
:1006E0002DE9F84300286AD088464849044608683E
:1006F00000F0070040450AD2086820F0070040EAF1
:1007000008000860086800F00700404557D12068DD
:100710005A4B8946810711D5410703D5196841F421
:10072000E0611960010703D5196841F4605119604F
:10073000A1681A6822F0F00211431960C00737D18E
:10074000D9F8000000F0070040450DD9D9F80000A5
:1007500020F0070040EA0800C9F80000D9F80000BE
:1007600000F0070040452AD12068410705D5E1681F
:100770001A6822F4E06211431960000706D5206967
:10078000196821F4605141EAC00018601C4600F06D
:100790005BF821681E4AC1F30311515CC840284927
:1007A00008601C480068FFF723FF0020BDE8F883BD
:1007B0006068012806D153F8041C89030BD401207A
:1007C000BDE8F88353F8041C022802D18901F6D54C
:1007D00001E08907F3D519681D4621F0030108439C
:1007E0001860FFF7E7FE064641F28837606829681F
:1007F0002B4601F00C01B1EB800FA1D0FFF7DAFE20
:10080000801BB842F2D90320BDE8F88300200240E3
:100810000816000804000020EB481849094A00683F
:100820000968C1F30221515CC8407047E64813498A
:10083000044A00680968C1F3C221515CC84070478E
:10084000080000201816000810B50C490C480A686A
:1008500002F00C03082B07D1C2F3834309A4D2038F
:10086000E35C02D40C48584310BD096809A2584300
:10087000C1F34041515CB0FBF1F010BD04100240E7
:1008800000127A0002030405060708090A0B0C0D82
:100890000E0F10100102000000093D002DE9FC417F
:1008A000002800F0A68004460078C54EC00725D079
:1008B000706800F00C0004281AD0706800F00C007A
:1008C000082802D17068C00312D46068002800F0C4
:1008D0000C81B0F5803F07D03168B0F5A02F40F013
:1008E000388141F480203060306840F4803036E157
:1008F0003068800302D5606800287AD020788007AD
:1009000018D5706810F00C0F07D0706800F00C005C
:10091000082824D17068C00321D43068800702D52C
:100920002069012865D16069316821F0F80141EA48
:10093000C00030602078000741D5A06910B3A148FD
:100940000121C0F88014FFF735FE0546706A800764
:1009500028D4FFF72FFE401B0228F7D90CE12169AC
:100960009848002900F09A8001210160FFF722FEDB
:10097000054630688007D6D4FFF71CFE401B0228CE
:10098000F7D9F9E08F480021C0F88014FFF712FE74
:100990000546706A800712D5FFF70CFE401B02283F
:1009A000F7D9E9E088484FF4FA510068B0FBF1F05C
:1009B000019000BF0198411E00280191F9D12078D3
:1009C000400719D4E7698FB1706800F00C0008285F
:1009D00045D1012F0DD0216A706800F480328A421F
:1009E00007D1616A00F47010884202D10020BDE88E
:1009F000FC810120BDE8FC81F069C0000BD4F069E6
:100A00004FF0010840F08050F061F06900F0805034
:100A10000090009801E04FF000086C4F3868C00566
:100A20000FD4386840F480703860FFF7C3FD054686
:100A30003868C00505D4FFF7BDFD401B6428F7D911
:100A40009AE0E068D0B3012805D0316A052862D168
:100A500041F004003062306A40F0010061E0594921
:100A6000002088460866FFF7A5FD0546022F0BD13A
:100A700047463068800140F18280FFF79BFD411BB3
:100A800003200229F5D9B2E730688001AED5FFF71F
:100A900091FD411B03200229F6D9A8E7002101603E
:100AA000FFF788FD0546306880077FF543AFFFF705
:100AB00081FD411B03200229F5D998E7306A20F017
:100AC00001003062306A20F004003062FFF772FDEE
:100AD000054641F28837306A800731D5FFF76AFD55
:100AE000411B0320B942F6D981E7306820F48030F9
:100AF0003060306820F480203060FFF75BFD0546F1
:100B0000306880037FF5FAAEFFF754FD411B0320E8
:100B10006429F5D96BE721F001003062306A20F0DA
:100B200004003062FFF746FD054641F28837306A1F
:100B3000800705D4FFF73EFD401BB842F7D91BE004
:100B4000B8F1000F3FF43EAFF06920F08050F06143
:100B500038E721F480303060306820F48020306045
:100B6000FFF728FD0546306880033FF5C7AEFFF765
:100B700021FD401B6428F6D90320BDE8FC81206AD2
:100B8000B0F5803F05D1A168726822F400321143AC
:100B90007160616A0843716821F4741108437060E0
:100BA00001203866FFF706FD0446306880013FF5F6
:100BB0001DAFFFF7FFFC011B03200229F5D916E743
:100BC0000010024000004242080000200070004077
:100BD000411E0020B0EB116F1CBF01207047044A7A
:100BE000F023516003490B7007219060116070473A
:100BF00010E000E023ED00E07CB5044690F84200F0
:100C000020281DD10125E1B1DAB1012520460026B9
:100C10002563666300F006FC206B012811D1019664
:100C200020680168019141680191019950E8030F22
:100C3000216840F0100041E8030222B12068F5E786
:100C4000022528467CBD0025FBE770477047000061
:100C5000F8B5044600680168C268466901F02F05CE
:100C600002F02003202D05D123B12046BDE8F84035
:100C700000F036BB5FEA017E08D006F0010612F4F0
:100C8000907F86F0010752D1002F50D01140CA0644
:100C9000226B3BD5012A39D10021009101680091D6
:100CA0004168009100994169490600F18E80E18D0B
:100CB000A28DE38D13B1511A0A0401D1F8BD206849
:100CC00050E8030F226820F4907042E80303002BE1
:100CD000F5D1206850E8050F226820F0010042E8B5
:100CE0000503002BF5D1202084F84200002020636A
:100CF000206850E8030F226820F0100042E8030348
:100D0000002BF5D1022089B26063A3E00A0600F14E
:100D1000A6804906D2D5C16821F04001C1602020DB
:100D200084F841002046BDE8F84000F09FB9CD07A7
:100D300018BF12F4807503D0656C45F00105656439
:100D400001F004054FF0010C8CEA95053D4303D1F9
:100D5000656C45F00205656401F002058CEA5505F5
:100D60003D4303D1656C45F004056564334318BF0A
:100D70000123BEF1000F04D51BB1636C43F00803DF
:100D80006364636C002B99D01140890603D520461B
:100D900000F0A6FA20684069616C00F0400001F0A4
:100DA000080140186CD0204600F073FA20684169B1
:100DB000490679D550E8050F216820F0400041E848
:100DC0000502002A62D02068F4E7E26B11684B68E4
:100DD0009DB2002D3FF472AFA18D8D42BFF46EAF76
:100DE000E3859269202A30D050E8030F216820F46F
:100DF000807041E803020AB12068F5E7206850E8F6
:100E0000050F216820F0010041E80502002AF5D114
:100E1000206850E8050F216820F0400041E80502F5
:100E2000002AF5D1202084F84200002020632068A9
:100E300050E8030F216820F0100041E80302002A67
:100E4000F5D1E06BFFF733FAA18D02206063E08DEE
:100E5000081A81B22046BDE8F840FFF7F6BE94F8C4
:100E6000411021297FF42AAFA168B1F5805F01D13B
:100E70002169F1B1216A4A1C2262097841601FE0B0
:100E80002046FFF7E3FE00206064F8BDE06B58B138
:100E900013494163FFF72CFA00283FF40FAFE06BD2
:100EA000416BBDE8F84008472046BDE8F840FFF731
:100EB000CDBE216A31F8022B6FF35F2221624260BE
:100EC000E18C0139E18409047FF4F8AEC16821F0B6
:100ED0008001C160C16841F04001C160F8BD00BF40
:100EE0008712000858B310B5044690F8410028B99D
:100EF000002084F84000204600F024F8242084F8E4
:100F000041002068C16821F40051C160204600F012
:100F100049FA2068016921F490410161416921F099
:100F20002A014161C16841F40051C16000202021C3
:100F3000606484F8411084F84210606310BD0120A1
:100F40007047000070B586B00026844CCDE9046679
:100F5000CDE90266006804F5405188422FD17E48F1
:100F600002AD016841F480410160016801F48041F3
:100F700001910199016841F004010160294600686E
:100F800000F00400019003200590022003904FF42C
:100F90000070029001982046FFF738FA4FF4806005
:100FA000CDE90366294602902046FFF72FFA252057
:100FB00000210022FFF768FB2520FFF757FB06B052
:100FC00070BD00BF70472DE9F843044690F841001A
:100FD00020281CBF0220BDE8F88388460120002994
:100FE00042D01746002A3FD04FF0000921201D466D
:100FF000C4F8449084F84100FFF7DCFAE784064621
:10100000A784A068B0F5805F05D12769002F0CBFC9
:10101000C146474600E04746E08CB8B120468021F3
:1010200032462B4600F017FAB8B927B117F8010B72
:101030002168486006E039F8021B206800276FF33A
:101040005F214160E08C0138E084E5E720464021E3
:1010500032462B4600F0FFF910B10320BDE8F883BB
:10106000202084F841000020BDE8F8837047FEE7A7
:101070002DE9F04F85B04FF000083748384E002278
:10108000CDF81080016841F004010160016801F0B1
:10109000040100910099016841F00801016046F2E5
:1010A000E011006800F00800009000982B4800F55F
:1010B000806482462046B04720464FF4004101221A
:1010C0004FF00109B04750464FF410610022B0477D
:1010D00050464FF400410122B047224801AE224F52
:1010E000CDF80C9031460290834603200190504683
:1010F000B84702254EF2E01031460495CDE902983A
:1011000001902046B8474FF409400495CDE9029874
:10111000314601905046B8474FF40070CDE902B90E
:10112000314601902046B847104C0620002100228D
:10113000A0470F4D0620A847072000210022A04706
:101140000720A847172000210022A0471720A84702
:1011500005B0BDE8F08F00BF181002400008014044
:10116000A9050008000021100D04000889060008E8
:101170006D06000810B5D548A94C4FF41653002150
:101180000C22C0E90043C0E90211C0E90412C0E921
:101190000611FFF7A7FE18B1BDE81040FFF783B8AE
:1011A00010BD00BFFEE7FEE770477047092835D83D
:1011B0001B49DFE800F0050B101316191C1F2B2725
:1011C00049F63F6008601748085825E0086844F26F
:1011D000E002104310E04BF65F6019E04DF65F60EF
:1011E00016E04DF69F6007E04FF4414010E04FF4E9
:1011F00001400DE04CF2300008600A48085840F405
:10120000807009E0086840F4404001E04FF400407D
:101210000860044808580020024A8850704700BF00
:101220000C0C014000FCFFFFFFF7C8B9B0B590B04F
:1012300006AC2421201DFEF7C7FF01A81421FEF7EC
:10124000C3FF102000250B9001200D950A9002206D
:1012500006902046FFF722FB18B1EFF3108072B61C
:10126000FEE70F2000210295019001A8CDE903556A
:101270000595FFF735FA18B1EFF3108072B6FEE767
:1012800010B0B0BD7047406A0021C185C184FFF72E
:10129000DDBC016851E8031F026821F4907142E847
:1012A0000313002BF5D1016851E8051F026821F0F6
:1012B000010142E80513002BF5D1016B012909D189
:1012C000016851E8031F026821F0100142E803138E
:1012D000002BF5D1202180F84210002101637047D6
:1012E00081B090F84210222920D18368B3F5805F45
:1012F00008D10169002949D000F128010A68036872
:101300005B680AE0014651F8282F13B90369002BE6
:10131000F5D003685B6803F07F0313700A6801323D
:101320000A60C18D0139C185090401D001B070473F
:101330000168CA6822F02002CA60CA6822F480727A
:10134000CA604A6922F001024A61202280F84220E4
:1013500000224263036B012B21D1026351E8031F7A
:10136000026821F0100142E803130168002BF5D157
:101370000A68D20606D5002200920A6800924968DF
:1013800000910099818D01B0FFF75FBC0168826A0E
:1013900049686FF35F2122F8021B8262C1E701B046
:1013A000FFF710BEB0B50446006804F108030ECB89
:1013B000056925F4405519432A4341F20C65026141
:1013C000C2686369AA4319431143C1604169A269B4
:1013D00021F44071114341611149884202D0FFF765
:1013E0001BFA01E0FFF722FA19214843D4E9001261
:1013F0006FF063049200B0FBF2F06422B0FBF2F3F2
:1014000003FB0400322404EB0010B0FBF2F000F008
:10141000F00200F00F0002EB031210448860B0BD30
:10142000003801400023C285436481622221828505
:1014300080F842100168006918B1C86840F48070F3
:10144000C860486940F001004861C86840F0200069
:10145000C860002070472DE9F0411D4690460F46B8
:1014600004465E1C206800683840B84227D0002E31
:10147000F8D02DB1FFF79EF8A0EB0800A842F1D9F3
:10148000206850E8030F216820F4D07041E803027F
:10149000002AF5D1206850E8050F216820F00100EE
:1014A00041E80502002AF5D12020002184F84100FE
:1014B00084F8401084F842000320BDE8F081002049
:1014C000BDE8F0814F48FFF7C3BB00BF9800002084
:1014D000FEE7000010B5074C00F00F03044AB0F11E
:1014E000FF3F2344C8BF83180801187010BD00BF18
:1014F00000E400E014ED00E070B5094A094BFF2458
:10150000FF250E0408D010F8016B01397540565DB7
:101510005D5D65403446F4E745EA042080B270BD65
:101520002017000820160008FFF752F8FFF77EFE8C
:10153000FFF79EFDFFF71EFEFEE70000F8B5304CFA
:101540000746304816460D460A22211DFFF754FB78
:10155000E0794FF4004120600238B0FA80F042098F
:101560001748FFF721F804F80E7F300A0621207192
:10157000280A6671E570A070042060702046FFF7AD
:10158000BBFFE0802046BDE8F84000F001B800BF96
:10159000B0B50B4C05464FF4006101222046FFF721
:1015A00003F8184829460B224FF47A73FFF70BFD16
:1015B00020464FF400610022BDE8B040FEF7F4BFC2
:1015C00000080140F8B50E4F06460E4814460D4679
:1015D0000A22391DFFF710FB07F80E6F200A0621BB
:1015E0003871280A7C71FD70B87006207870384612
:1015F000FFF782FFF8803846BDE8F840FFF7C8BF24
:101600007C00002098000020000000000000000086
:101610000102030406070809000000000102030498
:1016200000C1814001C0804101C0804100C18140B2
:1016300001C0804100C1814000C1814001C08041A2
:1016400001C0804100C1814000C1814001C0804192
:1016500000C1814001C0804101C0804100C1814082
:1016600001C0804100C1814000C1814001C0804172
:1016700000C1814001C0804101C0804100C1814062
:1016800000C1814001C0804101C0804100C1814052
:1016900001C0804100C1814000C1814001C0804142
:1016A00001C0804100C1814000C1814001C0804132
:1016B00000C1814001C0804101C0804100C1814022
:1016C00000C1814001C0804101C0804100C1814012
:1016D00001C0804100C1814000C1814001C0804102
:1016E00000C1814001C0804101C0804100C18140F2
:1016F00001C0804100C1814000C1814001C08041E2
:1017000001C0804100C1814000C1814001C08041D1
:1017100000C1814001C0804101C0804100C18140C1
:1017200000C0C101C30302C2C60607C705C5C40481
:10173000CC0C0DCD0FCFCE0E0ACACB0BC90908C8F1
:10174000D81819D91BDBDA1A1EDEDF1FDD1D1CDCE1
:1017500014D4D515D71716D6D21213D311D1D01051
:10176000F03031F133F3F23236F6F737F53534F441
:101770003CFCFD3DFF3F3EFEFA3A3BFB39F9F838B1
:1017800028E8E929EB2B2AEAEE2E2FEF2DEDEC2CA1
:10179000E42425E527E7E62622E2E323E12120E011
:1017A000A06061A163A3A26266A6A767A56564A401
:1017B0006CACAD6DAF6F6EAEAA6A6BAB69A9A86871
:1017C00078B8B979BB7B7ABABE7E7FBF7DBDBC7C61
:1017D000B47475B577B7B67672B2B373B17170B0D1
:1017E00050909151935352929656579755959454C1
:1017F0009C5C5D9D5F9F9E5E5A9A9B5B9959589831
:10180000884849894B8B8A4A4E8E8F4F8D4D4C8C20
:101810004484854587474686824243834181804090
:1018200040180008000000201000000028010008F7
:101830005018000810000020D806000044010008DD
:1018400001000000100000000024F400000000006F
:04000005080000ED02
:00000001FF
