:020000040800F2
:100000007806002089010008030B0008590A00083F
:10001000010B00088F020008E30B0008000000003D
:10002000000000000000000000000000070B0008B6
:100030009102000800000000050B0008850B000875
:10004000A3010008A3010008A3010008A301000800
:10005000A3010008A3010008A3010008A3010008F0
:10006000A3010008A3010008A3010008A3010008E0
:10007000A3010008A3010008A3010008A3010008D0
:10008000A3010008A3010008A3010008A3010008C0
:10009000A3010008A3010008A3010008A3010008B0
:1000A000A3010008A3010008A3010008A3010008A0
:1000B000A3010008A3010008A3010008A301000890
:1000C000A3010008A3010008A3010008A301000880
:1000D000A3010008A3010008A3010008A301000870
:1000E000A3010008A3010008A301000800F002F822
:1000F00000F03AF80AA090E8000C82448344AAF188
:100100000107DA4501D100F02FF8AFF2090EBAE885
:100110000F0013F0010F18BFFB1A43F0010318473B
:10012000200B0000400B0000103A24BF78C878C1B3
:10013000FAD8520724BF30C830C144BF04680C60ED
:10014000704700000023002400250026103A28BF35
:1001500078C1FBD8520728BF30C148BF0B60704739
:100160001FB51FBD10B510BD00F058F81146FFF7C0
:10017000F7FF00F049FD00F076F803B4FFF7F2FF57
:1001800003BC00F07DF8000009488047094800479B
:10019000FEE7FEE7FEE7FEE7FEE7FEE7FEE7FEE737
:1001A000FEE7FEE704480549054A064B7047000094
:1001B000E10B0008ED000008780000207806002020
:1001C00078020020780200204FF0000200B51346AC
:1001D00094469646203922BFA0E80C50A0E80C5067
:1001E000B1F12001BFF4F7AF090728BFA0E80C5018
:1001F00048BF0CC05DF804EB890028BF40F8042B11
:1002000008BF704748BF20F8022B11F0804F18BF7D
:1002100000F8012B7047704770477047754600F033
:100220002BF8AE4605006946534620F00700854688
:1002300018B020B5FFF7B6FFBDE820404FF000062C
:100240004FF000074FF000084FF0000BAC46ACE851
:10025000C009ACE8C009ACE8C009ACE8C00921F0AD
:1002600007018D46704710B50446AFF30080204665
:10027000BDE81040FFF781BF004870471000002024
:1002800001491820ABBEFEE7260002007047FEE7DA
:1002900070470000B0B5044600F0E0F805468C4811
:1002A000611C007818BF044400F0D8F8401BA0423D
:1002B000FAD3B0BD2DE9FC4F594A04234FF0000B8F
:1002C0004FF001084FF00F0E4FF00009002590424B
:1002D00008BF032300930B6833FA05F208BFBDE89B
:1002E000FC8F08FA05F2134200F095804F68032F47
:1002F00016D9112F24D0122F26D04C4B9F4213D049
:100300004B4B9F4210D04B4B9F420DD04A4B9F42CC
:100310000AD04A4B9F4207D0494B9F4204D020E06D
:10032000DFE807F00216191D8B6833B1012B14BFEB
:10033000426102614FF0080913E04FF0040910E038
:10034000CB6803F104090CE0CB6803F10C0908E069
:10035000D1F80C9005E0CB6803F1080901E04FF0FB
:1003600000095B460646082D28BF203B28BF0436FF
:1003700037680EFA03F409FA03F327EA0404234367
:100380003360CB79DB0646D5604C264E0BF00C0C67
:100390002368A6F57E7643F001032360236803F00B
:1003A000010301930EFA0CF3019CAC0856F824707B
:1003B00027EA030A234B984208D0234B984207D0E0
:1003C000224B9842009B08BF022302E0002300E07A
:1003D000012303FA0CF343EA0A0346F82430114CD4
:1003E000114E4F68FB02A36854BF93431343A360AD
:1003F000BB02336854BF934313433360BB0363684A
:1004000054BF934313436360FB03236854BF23EA41
:1004100002021A4322600BF1040B01355BE700BFB7
:1004200000140140000401400C04014000001110C0
:1004300000001210000021100000221000003110F6
:100440000000321000080140000C01400010014083
:10045000002A08BF090401617047000005480068D0
:10046000704700BF1A48034900780A6810440860C2
:10047000704700BF7000002080B58748016841F0D8
:1004800010010160032000F061F80F2000F004F873
:1004900000F020F8002080BD70B50D4E04464FF4EA
:1004A0007A713078B1FBF0F07D490968B1FBF0F06A
:1004B00000F0BEFA01250F2C08D838B94FF0FF30F4
:1004C00021460022002500F025F87460284670BD02
:1004D0000000002082B00D480222016841F00101B5
:1004E0000160016801F0010101910199416841F049
:1004F00080514160406800F08050009000980448AE
:10050000016862F31A61016002B07047181002407E
:100510000400014070B5134B4FF0FF351B68C3F367
:100520000223DC1E83F0070338BF0024042B28BFFE
:10053000042305FA04F605FA03F3B2439943A140F4
:100540001143BDE8704000F04DBB00BF05494FF6B8
:10055000FF030A681A4060F30A2203481043086048
:10056000704700BF0CED00E00000FA052DE9F843EC
:1005700000286AD0884648490446086800F0070009
:1005800040450AD2086820F0070040EA08000860E9
:10059000086800F00700404557D120684F4B894656
:1005A000810711D5410703D5196841F4E06119604D
:1005B000010703D5196841F460511960A1681A68F0
:1005C00022F0F00211431960C00737D1D9F80000BA
:1005D00000F0070040450DD9D9F8000020F00700D1
:1005E00040EA0800C9F80000D9F8000000F0070050
:1005F00040452AD12068410705D5E1681A6822F4F0
:10060000E06211431960000706D52069196821F4DA
:10061000605141EAC00018601C4600F045F82168AE
:100620001E4AC1F30311515CC8401D4908601D48B2
:100630000068FFF731FF0020BDE8F88360680128FB
:1006400006D153F8041C89030BD40120BDE8F883BC
:1006500053F8041C022802D18901F6D501E089076C
:10066000F3D519681D4621F0030108431860FFF710
:10067000F5FE064641F28837606829682B4601F08E
:100680000C01B1EB800FA1D0FFF7E8FE801BB84250
:10069000F2D90320BDE8F88300200240300C0008A6
:1006A000080000200400002010B50C490C480A681E
:1006B00002F00C03082B07D1C2F3834309A4D20331
:1006C000E35C02D40C48584310BD096809A25843A2
:1006D000C1F34041515CB0FBF1F010BD0410024089
:1006E00000127A0002030405060708090A0B0C0D24
:1006F0000E0F10100102000000093D002DE9FC4121
:10070000002800F0A68004460078C54EC00725D01A
:10071000706800F00C0004281AD0706800F00C001B
:10072000082802D17068C00312D46068002800F065
:100730000C81B0F5803F07D03168B0F5A02F40F0B4
:10074000388141F480203060306840F4803036E1F8
:100750003068800302D5606800287AD0207880074E
:1007600018D5706810F00C0F07D0706800F00C00FE
:10077000082824D17068C00321D43068800702D5CE
:100780002069012865D16069316821F0F80141EAEA
:10079000C00030602078000741D5A06910B3A1489F
:1007A0000121C0F88014FFF759FE0546706A8007E2
:1007B00028D4FFF753FE401B0228F7D90CE121692A
:1007C0009848002900F09A8001210160FFF746FE59
:1007D000054630688007D6D4FFF740FE401B02284C
:1007E000F7D9F9E08F480021C0F88014FFF736FEF2
:1007F0000546706A800712D5FFF730FE401B0228BD
:10080000F7D9E9E088484FF4FA510068B0FBF1F0FD
:10081000019000BF0198411E00280191F9D1207874
:10082000400719D4E7698FB1706800F00C00082800
:1008300045D1012F0DD0216A706800F480328A42C0
:1008400007D1616A00F47010884202D10020BDE82F
:10085000FC810120BDE8FC81F069C0000BD4F06987
:100860004FF0010840F08050F061F06900F08050D6
:100870000090009801E04FF000086C4F3868C00508
:100880000FD4386840F480703860FFF7E7FD054604
:100890003868C00505D4FFF7E1FD401B6428F7D98F
:1008A0009AE0E068D0B3012805D0316A052862D10A
:1008B00041F004003062306A40F0010061E05949C3
:1008C000002088460866FFF7C9FD0546022F0BD1B8
:1008D00047463068800140F18280FFF7BFFD411B31
:1008E00003200229F5D9B2E730688001AED5FFF7C1
:1008F000B5FD411B03200229F6D9A8E700210160BC
:10090000FFF7ACFD0546306880077FF543AFFFF782
:10091000A5FD411B03200229F5D998E7306A20F094
:1009200001003062306A20F004003062FFF796FD6B
:10093000054641F28837306A800731D5FFF78EFDD2
:10094000411B0320B942F6D981E7306820F480309A
:100950003060306820F480203060FFF77FFD05466E
:10096000306880037FF5FAAEFFF778FD411B032066
:100970006429F5D96BE721F001003062306A20F07C
:1009800004003062FFF76AFD054641F28837306A9D
:10099000800705D4FFF762FD401BB842F7D91BE082
:1009A000B8F1000F3FF43EAFF06920F08050F061E5
:1009B00038E721F480303060306820F480203060E7
:1009C000FFF74CFD0546306880033FF5C7AEFFF7E3
:1009D00045FD401B6428F6D90320BDE8FC81206A50
:1009E000B0F5803F05D1A168726822F4003211434E
:1009F0007160616A0843716821F474110843706082
:100A000001203866FFF72AFD0446306880013FF573
:100A10001DAFFFF723FD011B03200229F5D916E7BF
:100A20000010024000004242080000200070004018
:100A3000411E0020B0EB116F1CBF01207047044A1B
:100A4000F023516003490B700721906011607047DB
:100A500010E000E023ED00E0FEE700002DE9F043A8
:100A600085B02448244C254E00224FF00008016830
:100A700004F5806541F008010160016801F008019A
:100A800001910199016841F00401016046F2E01111
:100A9000006800F00400019001982846B0472846FD
:100AA0004FF4004101224FF00109B04720464FF4B6
:100AB00080710022B04720464FF400410122B04728
:100AC000022701AE4EF2E0100497CDE902980190A2
:100AD00028463146FFF7EEFB4FF401400497CDE97D
:100AE0000298314601902046FFF7E4FB05B0BDE8CF
:100AF000F08300BF181002400008014051040008B4
:100B0000FEE7FEE770477047092835D81B49DFE844
:100B100000F0050B101316191C1F2B2749F63F6018
:100B200008601748085825E0086844F2E0021043BE
:100B300010E04BF65F6019E04DF65F6016E04DF691
:100B40009F6007E04FF4414010E04FF401400DE09A
:100B50004CF2300008600A48085840F4807009E000
:100B6000086840F4404001E04FF400400860044849
:100B700008580020024A8850704700BF0C0C014002
:100B800000FCFFFFFFF76EBCB0B590B006AC2421AF
:100B9000201DFFF719FB01A81421FFF715FB1020FA
:100BA00000250B9001200D950A900220069020460A
:100BB000FFF7A4FD18B1EFF3108072B6FEE70F2027
:100BC00000210295019001A8CDE903550595FFF795
:100BD000CDFC18B1EFF3108072B6FEE710B0B0BDD7
:100BE0007047FEE710B5074C00F00F03044AB0F160
:100BF000FF3F2344C8BF83180801187010BD00BF11
:100C000000E400E014ED00E0FFF736FCFFF7BCFF66
:100C1000FFF724FF0020044600200A2CFBD02046CA
:100C2000FFF772FF4FF47A70FFF734FB601CF2E7B6
:100C3000000000000000000001020304060708098C
:100C4000600C0008000000201000000028010008CF
:100C5000700C000810000020680600004401000825
:100C600001000000100000000024F400000000005B
:04000005080000ED02
:00000001FF
