:020000040800F2
:100000009809002089010008C31200087311000834
:10001000C1120008D30200081516000800000000F5
:10002000000000000000000000000000C7120008EF
:10003000D502000800000000C51200086D1300087A
:10004000A3010008A3010008A3010008A301000800
:10005000A3010008A3010008A3010008A3010008F0
:10006000A3010008A3010008A3010008A3010008E0
:10007000A3010008A3010008A3010008A3010008D0
:10008000A3010008A3010008A3010008A3010008C0
:10009000A3010008A3010008A3010008A3010008B0
:1000A000A3010008A3010008A3010008A3010008A0
:1000B000A3010008A3010008A3010008A301000890
:1000C000A3010008A3010008A3010008A301000880
:1000D000A3010008A301000809160008A3010008F5
:1000E000D7020008A3010008A301000800F002F8ED
:1000F00000F03AF80AA090E8000C82448344AAF188
:100100000107DA4501D100F02FF8AFF2090EBAE885
:100110000F0013F0010F18BFFB1A43F0010318473B
:100120006C1E00008C1E0000103A24BF78C878C1F5
:10013000FAD8520724BF30C830C144BF04680C60ED
:10014000704700000023002400250026103A28BF35
:1001500078C1FBD8520728BF30C148BF0B60704739
:100160001FB51FBD10B510BD00F07AF81146FFF79E
:10017000F7FF01F0FFFA00F098F803B4FFF7F2FF81
:1001800003BC00F09FF80000094880470948004779
:10019000FEE7FEE7FEE7FEE7FEE7FEE7FEE7FEE737
:1001A000FEE7FEE704480549054A064B7047000094
:1001B000C9130008ED0000089803002098090020EA
:1001C00098050020980500204FF000020429C0F097
:1001D000128010F0030C00F01B80CCF1040CBCF179
:1001E000020F18BF00F8012BA8BF20F8022BA1EBCB
:1001F0000C0100F00DB85FEAC17C24BF00F8012BB0
:1002000000F8012B48BF00F8012B70474FF00002A7
:1002100000B5134694469646203922BFA0E80C50FC
:10022000A0E80C50B1F12001BFF4F7AF090728BFD7
:10023000A0E80C5048BF0CC05DF804EB890028BF53
:1002400040F8042B08BF704748BF20F8022B11F07C
:10025000804F18BF00F8012B7047704770477047F8
:10026000754600F02BF8AE4605006946534620F06F
:100270000700854618B020B5FFF794FFBDE8204081
:100280004FF000064FF000074FF000084FF0000B52
:10029000AC46ACE8C009ACE8C009ACE8C009ACE8C1
:1002A000C00921F007018D46704710B50446AFF331
:1002B00000802046BDE81040FFF75FBF0048704750
:1002C0009000002001491820ABBEFEE72600020086
:1002D0007047FEE770474FF4005000F09DB8EFF311
:1002E000108072B6FEE710B590F82110022912D1E5
:1002F0000168D0E90F230C6824F00E040C600C6830
:1003000024F001040C60012101FA03F3536080F82A
:100310002110002102E0042181630121002280F8E4
:100320002020084610BD0000B0B590F82110022929
:100330001CD103681F4C01221968A34221F00E0151
:100340001960196821F001011960194912D01A4C7D
:10035000A34211D0194CA34210D0194CA34210D083
:10036000184CA34210D14FF4803415E0042181636E
:1003700001211BE001240FE010240DE04FF48074F4
:100380000AE04FF4805407E001F168054FF08074F3
:10039000AB4208BF4FF480140C60002180F820109D
:1003A00080F82120426B0AB1904700210846B0BD79
:1003B00004000240080002401C00024030000240DD
:1003C0004400024058000240B0B5044600F002F973
:1003D00005469D48611C007818BF044400F0FAF8F7
:1003E000401BA042FAD3B0BDB0B5044600F0F2F80D
:1003F000084DB4F5005FA86009D1E968411AC92920
:1004000005D30A2028700A2001F0B8FAA868E8602D
:10041000B0BD00BFF000002003490A68024208BFD7
:1004200070470860FFF7E0BF140401402DE9FC4F5E
:10043000594A04234FF0000B4FF001084FF00F0E04
:100440004FF000090025904208BF032300930B687A
:1004500033FA05F208BFBDE8FC8F08FA05F2134233
:1004600000F095804F68032F16D9112F24D0122F3A
:1004700026D04C4B9F4213D04B4B9F4210D04B4B3E
:100480009F420DD04A4B9F420AD04A4B9F4207D011
:10049000494B9F4204D020E0DFE807F00216191D07
:1004A0008B6833B1012B14BF426102614FF0080920
:1004B00013E04FF0040910E0CB6803F104090CE0ED
:1004C000CB6803F10C0908E0D1F80C9005E0CB688B
:1004D00003F1080901E04FF000095B460646082DCC
:1004E00028BF203B28BF043637680EFA03F409FA08
:1004F00003F327EA040423433360CB79DB0646D5B4
:10050000604C264E0BF00C0C2368A6F57E7643F06B
:1005100001032360236803F0010301930EFA0CF337
:10052000019CAC0856F8247027EA030A234B984232
:1005300008D0234B984207D0224B9842009B08BF1B
:10054000022302E0002300E0012303FA0CF343EA54
:100550000A0346F82430114C114E4F68FB02A36881
:1005600054BF93431343A360BB02336854BF934308
:1005700013433360BB03636854BF93431343636007
:10058000FB03236854BF23EA02021A4322600BF1E3
:10059000040B01355BE700BF00140140000401407B
:1005A0000C04014000001110000012100000211086
:1005B000000022100000311000003210000801403D
:1005C000000C014000100140002A08BF090401612D
:1005D0007047000005480068704700BF1A4803498B
:1005E00000780A6810440860704700BF9403002038
:1005F00080B58E48016841F010010160032000F0D1
:100600006FF80F2000F004F800F020F8002080BD03
:1006100070B50D4E04464FF47A713078B1FBF0F0AE
:100620008F490968B1FBF0F000F0E2FA01250F2CC8
:1006300008D838B94FF0FF3021460022002500F0DD
:1006400033F87460284670BD0000002082B00D4869
:100650000222016841F001010160016801F001011D
:1006600001910199416841F080514160406800F07A
:100670008050009000980448016862F31A6101609C
:1006800002B070471810024004000140002808D44E
:1006900000F01F010122400902FA01F1014A42F86B
:1006A0002010704700E100E070B5134B4FF0FF35AC
:1006B0001B68C3F30223DC1E83F0070338BF00244A
:1006C000042B28BF042305FA04F605FA03F3B2430A
:1006D0009943A1401143BDE8704000F09DBF00BFA9
:1006E00005494FF6FF030A681A4060F30A220348DF
:1006F00010430860704700BF0CED00E00000FA05F1
:100700002DE9F84300286AD088464849044608681D
:1007100000F0070040450AD2086820F0070040EAD0
:1007200008000860086800F00700404557D12068BD
:100730005A4B8946810711D5410703D5196841F401
:10074000E0611960010703D5196841F4605119602F
:10075000A1681A6822F0F00211431960C00737D16E
:10076000D9F8000000F0070040450DD9D9F8000085
:1007700020F0070040EA0800C9F80000D9F800009E
:1007800000F0070040452AD12068410705D5E168FF
:100790001A6822F4E06211431960000706D5206947
:1007A000196821F4605141EAC00018601C4600F04D
:1007B0005BF821681E4AC1F30311515CC840284907
:1007C00008601C480068FFF723FF0020BDE8F8839D
:1007D0006068012806D153F8041C89030BD401205A
:1007E000BDE8F88353F8041C022802D18901F6D52C
:1007F00001E08907F3D519681D4621F0030108437C
:100800001860FFF7E7FE064641F2883760682968FE
:100810002B4601F00C01B1EB800FA1D0FFF7DAFEFF
:10082000801BB842F2D90320BDE8F88300200240C3
:10083000741D000804000020EB481849094A0068AC
:100840000968C1F30221515CC8407047E64813496A
:10085000044A00680968C1F3C221515CC84070476E
:1008600088000020841D000810B50C490C480A6857
:1008700002F00C03082B07D1C2F3834309A4D2036F
:10088000E35C02D40C48584310BD096809A25843E0
:10089000C1F34041515CB0FBF1F010BD04100240C7
:1008A00000127A0002030405060708090A0B0C0D62
:1008B0000E0F10100102000000093D002DE9FC415F
:1008C000002800F0A68004460078C54EC00725D059
:1008D000706800F00C0004281AD0706800F00C005A
:1008E000082802D17068C00312D46068002800F0A4
:1008F0000C81B0F5803F07D03168B0F5A02F40F0F3
:10090000388141F480203060306840F4803036E136
:100910003068800302D5606800287AD0207880078C
:1009200018D5706810F00C0F07D0706800F00C003C
:10093000082824D17068C00321D43068800702D50C
:100940002069012865D16069316821F0F80141EA28
:10095000C00030602078000741D5A06910B3A148DD
:100960000121C0F88014FFF735FE0546706A800744
:1009700028D4FFF72FFE401B0228F7D90CE121698C
:100980009848002900F09A8001210160FFF722FEBB
:10099000054630688007D6D4FFF71CFE401B0228AE
:1009A000F7D9F9E08F480021C0F88014FFF712FE54
:1009B0000546706A800712D5FFF70CFE401B02281F
:1009C000F7D9E9E088484FF4FA510068B0FBF1F03C
:1009D000019000BF0198411E00280191F9D12078B3
:1009E000400719D4E7698FB1706800F00C0008283F
:1009F00045D1012F0DD0216A706800F480328A42FF
:100A000007D1616A00F47010884202D10020BDE86D
:100A1000FC810120BDE8FC81F069C0000BD4F069C5
:100A20004FF0010840F08050F061F06900F0805014
:100A30000090009801E04FF000086C4F3868C00546
:100A40000FD4386840F480703860FFF7C3FD054666
:100A50003868C00505D4FFF7BDFD401B6428F7D9F1
:100A60009AE0E068D0B3012805D0316A052862D148
:100A700041F004003062306A40F0010061E0594901
:100A8000002088460866FFF7A5FD0546022F0BD11A
:100A900047463068800140F18280FFF79BFD411B93
:100AA00003200229F5D9B2E730688001AED5FFF7FF
:100AB00091FD411B03200229F6D9A8E7002101601E
:100AC000FFF788FD0546306880077FF543AFFFF7E5
:100AD00081FD411B03200229F5D998E7306A20F0F7
:100AE00001003062306A20F004003062FFF772FDCE
:100AF000054641F28837306A800731D5FFF76AFD35
:100B0000411B0320B942F6D981E7306820F48030D8
:100B10003060306820F480203060FFF75BFD0546D0
:100B2000306880037FF5FAAEFFF754FD411B0320C8
:100B30006429F5D96BE721F001003062306A20F0BA
:100B400004003062FFF746FD054641F28837306AFF
:100B5000800705D4FFF73EFD401BB842F7D91BE0E4
:100B6000B8F1000F3FF43EAFF06920F08050F06123
:100B700038E721F480303060306820F48020306025
:100B8000FFF728FD0546306880033FF5C7AEFFF745
:100B900021FD401B6428F6D90320BDE8FC81206AB2
:100BA000B0F5803F05D1A168726822F4003211438C
:100BB0007160616A0843716821F4741108437060C0
:100BC00001203866FFF706FD0446306880013FF5D6
:100BD0001DAFFFF7FFFC011B03200229F5D916E723
:100BE00000100240000042428800002000700040D7
:100BF000411E0020B0EB116F1CBF01207047044A5A
:100C0000F023516003490B70072190601160704719
:100C100010E000E023ED00E07CB5044690F84200CF
:100C200020281DD10125E1B1DAB101252046002699
:100C30002563666300F098FC206B012811D10196B2
:100C400020680168019141680191019950E8030F02
:100C5000216840F0100041E8030222B12068F5E766
:100C6000022528467CBD0025FBE70000B0B51F4DDE
:100C70000C464FF480722946FFF7CEFF28780528EE
:100C80002AD1687801380F281DD8DFE800F0080B5A
:100C90000E1116191C1C1C1C1C1C1C1C202300F0F3
:100CA000CBFD19E000F0A6FE16E000F031FE13E0E7
:100CB0000F48007800F062FE0EE000F0EDFF0BE060
:100CC00001F02AF808E0012000F0A8FD04E000F09F
:100CD00077FF01E000F02CFF054804494FF48072D3
:100CE00044600448BDE8B040FFF796BF040100200F
:100CF000F00000204C03002070470000F8B50446C7
:100D000000680168C268466901F02F0502F02003FF
:100D1000202D05D123B12046BDE8F84000F082BB6C
:100D20005FEA017E08D006F0010612F4907F86F09B
:100D3000010752D1002F50D01140CA06226B3BD57B
:100D4000012A39D100210091016800914168009188
:100D500000994169490600F18E80E18DA28DE38DF5
:100D600013B1511A0A0401D1F8BD206850E8030FED
:100D7000226820F4907042E80303002BF5D120682C
:100D800050E8050F226820F0010042E80503002B1F
:100D9000F5D1202084F8420000202063206850E82C
:100DA000030F226820F0100042E80303002BF5D166
:100DB000022089B26063A3E00A0600F1A68049061A
:100DC000D2D5C16821F04001C160202084F84100E3
:100DD0002046BDE8F84000F0CBB9CD0718BF12F4AB
:100DE000807503D0656C45F00105656401F004056C
:100DF0004FF0010C8CEA95053D4303D1656C45F03D
:100E00000205656401F002058CEA55053D4303D1F6
:100E1000656C45F004056564334318BF0123BEF1DA
:100E2000000F04D51BB1636C43F008036364636C6B
:100E3000002B99D01140890603D5204600F0F2FA24
:100E400020684069616C00F0400001F00801401822
:100E50006CD0204600F0BFFA20684169490679D578
:100E600050E8050F216820F0400041E80502002A03
:100E700062D02068F4E7E26B11684B689DB2002DE8
:100E80003FF472AFA18D8D42BFF46EAFE3859269DE
:100E9000202A30D050E8030F216820F4807041E808
:100EA00003020AB12068F5E7206850E8050F2168C1
:100EB00020F0010041E80502002AF5D1206850E841
:100EC000050F216820F0400041E80502002AF5D115
:100ED000202084F8420000202063206850E8030F9F
:100EE000216820F0100041E80302002AF5D1E06BF0
:100EF000FFF7F9F9A18D02206063E08D081A81B235
:100F00002046BDE8F840FFF7B1BE94F84110212912
:100F10007FF42AAFA168B1F5805F01D12169F1B1F9
:100F2000216A4A1C2262097841601FE02046FFF7CF
:100F3000E3FE00206064F8BDE06B58B113494163E3
:100F4000FFF7F2F900283FF40FAFE06B416BBDE80B
:100F5000F84008472046BDE8F840FFF7CDBE216ABB
:100F600031F8022B6FF35F2221624260E18C01397C
:100F7000E18409047FF4F8AEC16821F08001C1600A
:100F8000C16841F04001C160F8BD00BFCB1300084B
:100F900058B310B5044690F8410028B9002084F8F1
:100FA0004000204600F024F8242084F84100206806
:100FB000C16821F40051C160204600F095FA206814
:100FC000016921F490410161416921F02A014161E7
:100FD000C16841F40051C16000202021606484F8A0
:100FE000411084F84210606310BD0120704700007A
:100FF00070B586B00026B149CDE90466CDE9026638
:10100000006888422DD0A049884259D18C482D4C87
:1010100002AD016841F480410160016801F4804142
:1010200001910199016841F00401016029460068BD
:1010300000F00400019003200590022003904FF47B
:101040000070029001982046FFF7F0F90020294631
:10105000CDE903004FF4806002902046FFF7E6F9E7
:101060002EE07748174C02AD416841F400314160F1
:10107000416801F4003101910199016841F00401D6
:1010800001602946006800F00400019003200590EB
:10109000022003900420029001982046FFF7C6F931
:1010A0000820CDE90366294602902046FFF7BEF9E5
:1010B000262000210022FFF7F7FA2620FFF7E6FAA4
:1010C00006B070BD0008014070472DE9F8430446A2
:1010D00090F8410020281CBF0220BDE8F883884614
:1010E0000120002942D01746002A3FD04FF00009C6
:1010F00021201D46C4F8449084F84100FFF76AFAA5
:10110000E7840646A784A068B0F5805F05D127690B
:10111000002F0CBFC146474600E04746E08CB8B1FF
:101120002046802132462B4600F037FAB8B927B165
:1011300017F8010B2168486006E039F8021B2068A7
:1011400000276FF35F214160E08C0138E084E5E720
:101150002046402132462B4600F01FFA10B10320F2
:10116000BDE8F883202084F841000020BDE8F88322
:101170007047FEE72DE9F04F85B0314800224FF06F
:101180000009016841F004010160016801F00401F7
:1011900001910199016841F00801016049F6F011DF
:1011A000006800F00800019001982648A0F58064CE
:1011B00083462046FFF708FA58464DF239110022BF
:1011C0004DF2391AFFF700FA4FF0020801AE41F66E
:1011D000F0101D4D0127CDE90398019020463146BE
:1011E0000297A84758463146CDE90398CDE901A7B3
:1011F000A84740F20640CDE9029731460190584693
:10120000A84712483146039702904FF400500190CE
:101210005846A8474FF40040CDF81080CDE902773A
:10122000314601902046A847282000210022FFF7E0
:101230003BFA2820FFF72AFA05B0BDE8F08F00BF7F
:1012400018100240000C01402D040008000021107D
:10125000B0B50C48C34D4FF4165400210C224FF486
:101260008063C0E90054C0E90211C0E90432C0E95A
:101270000611FFF78DFE18B1BDE8B040FFF72FB89B
:10128000B0BD00BF040300200038014010B5E048A5
:101290000A4C4FF4165300210C22C0E90043C0E968
:1012A0000211C0E90412C0E90611FFF771FE18B17E
:1012B000BDE81040FFF713B810BD00BF0044004068
:1012C000FEE7FEE77047704710B5274B48F238023B
:1012D0000A28196821F418411960D3F8001421EA8A
:1012E0000201C3F800143ED803F5806148F22002E1
:1012F000DFE800F006360A0F161D2113282C3300F4
:10130000186840F4C05024E01868302240F41840B7
:101310000BE0186840F40840186048F230021FE003
:10132000186848F2280240F40040186018E0186875
:1013300040F4084002E0186840F41840186048F291
:1013400018020DE0186840F4184002E0186840F4F4
:101350000840186048F2380202E04FF40042194693
:1013600008681043086010BD0C080140FFF736B94B
:10137000B0B590B006AC2421201DFEF747FF01A8B0
:101380001421FEF743FF102000250B9001200D953E
:101390000A90022006902046FFF790FA18B1EFF36A
:1013A000108072B6FEE70F2000210295019001A87F
:1013B000CDE903550595FFF7A3F918B1EFF31080B8
:1013C00072B6FEE710B0B0BD7047406A0021C1851B
:1013D000C184FFF791BC016851E8031F026821F442
:1013E000907142E80313002BF5D1016851E8051F05
:1013F000026821F0010142E80513002BF5D1016BD1
:10140000012909D1016851E8031F026821F0100188
:1014100042E80313002BF5D1202180F8421000216F
:101420000163704781B090F84210222920D183686F
:10143000B3F5805F08D10169002949D000F1280186
:101440000A6803685B680AE0014651F8282F13B95F
:101450000369002BF5D003685B6803F07F0313700A
:101460000A6801320A60C18D0139C185090401D0C1
:1014700001B070470168CA6822F02002CA60CA68D9
:1014800022F48072CA604A6922F001024A61202275
:1014900080F8422000224263036B012B21D10263BA
:1014A00051E8031F026821F0100142E803130168AC
:1014B000002BF5D10A68D20606D5002200920A68F0
:1014C0000092496800910099818D01B0FFF7CEBB71
:1014D0000168826A49686FF35F2122F8021B826209
:1014E000C1E701B0FFF7F0BDB0B50446006804F1F4
:1014F00008030ECB056925F4405519432A4341F2F0
:101500000C650261C2686369AA4319431143C16053
:101510004169A26921F44071114341611149884236
:1015200002D0FFF789F901E0FFF790F9192148434C
:10153000D4E900126FF063049200B0FBF2F0642271
:10154000B0FBF2F303FB0400322404EB0010B0FB09
:10155000F2F000F0F00200F00F0002EB0312104472
:101560008860B0BD003801400023C28543648162B9
:101570002221828580F842100168006918B1C8688C
:1015800040F48070C860486940F001004861C86854
:1015900040F02000C860002070472DE9F0411D4652
:1015A00090460F4604465E1C206800683840B842EA
:1015B00027D0002EF8D02DB1FFF70CF8A0EB0800D3
:1015C000A842F1D9206850E8030F216820F4D070B8
:1015D00041E80302002AF5D1206850E8050F216890
:1015E00020F0010041E80502002AF5D12020002169
:1015F00084F8410084F8401084F842000320BDE8DC
:10160000F0810020BDE8F0818248FFF777BB00BF82
:101610004C030020FEE7000010B5074C00F00F035C
:10162000044AB0F1FF3F2344C8BF83180801187073
:1016300010BD00BF00E400E014ED00E070B5744C94
:101640000F4E4FF4805101222046B0470D4D6420CB
:10165000A84720464FF480510022B0476420A84795
:1016600020464FF480510122B0476420A84720460D
:101670004FF4805100223346BDE87040184700BF48
:10168000C9050008C903000870B5094A094BFF24C1
:10169000FF250E0408D010F8016B01397540565D26
:1016A0005D5D65403446F4E745EA042080B270BDD4
:1016B0008C1E00088C1D00082DE9F04727480026E5
:1016C0000FF29C0840F206498246042E1DD038F8DD
:1016D00026505446032E4FF00002574608BF04F52B
:1016E000806420462946FEF76FFF0520FEF76CFE5A
:1016F000DAF80874204629460122FEF765FF07EA5A
:101700000900484503D10136DFE740F20640DAF828
:101710000C10042E41F0E001CAF80C1014490A68BC
:1017200042F001020A600DD006280FD040F20241BB
:1017300088420FD040F20441884203D106EB4600B4
:10174000013000E00020C0B2BDE8F08706EB4600A3
:101750000330F8E706EB46000230F4E700080140EA
:101760002000000040000000800000000100000098
:101770000C0C0140FEF73CFFFFF7FAFDFFF7FAFC07
:10178000FFF766FDFFF782FD214C4FF480510122E7
:101790002046FEF719FF4FF4FA70FEF715FE2046BB
:1017A0004FF4805100224FF00008FEF70DFFC74DA7
:1017B000DE484FF480722946FFF72EFA164FC44ECA
:1017C000FFF77AFF787068793978081A18BF012016
:1017D0003279891A18BF012101EA000220464FF42C
:1017E0008071FEF7F1FE787808B138700CE0687906
:1017F00050B16978062907D1B978012904D1387028
:10180000FFF71CFF87F802803878FFF75DFDD7E708
:10181000000C01404C030020F0000020E7498870D4
:10182000E4480278407840F080000A70487008462A
:10183000032100F05DB900BF2DE9F047DD4E30799E
:10184000777947EA0024601EB0F5FA6F01D30320D0
:101850000DE0B07896F803804FF6F87148EA002959
:1018600009EB040001380840C82805D30220FFF71F
:10187000D5FF0020BDE8F087DFF8F4A4FD210AF1D0
:101880000300FEF7A1FC052017F0070CDFF880E449
:101890004FEAD9024FF000074FF003038AF8000027
:1018A00018BF4FF0010C0CEBD4018AF802107178CC
:1018B0008AF8011008F0070114B31EF802608DB217
:1018C0001AF803000131062FA4F1010426FA05F5E8
:1018D00005F0010505FA07F540EA050007F10105E5
:1018E0000AF8030088B2C8BF0133072888BF013255
:1018F000062FC8BF00252F46072888BF0021DBE739
:10190000E44803EB0C0100F0F3F80120BDE8F08798
:1019100070B5DF4B18795C7944EA0020411E7D29BF
:1019200001D303200AE059884FF6FE7509BA090C65
:101930000A18013A2A40322A04D30220FFF76EFF28
:10194000002070BDF34A64005B78052594709A4CC2
:1019500053700023157058B18EB2D5180138023378
:10196000013134F8166036BA360CA5F80360F2E798
:10197000E848D91C00F0BCF8012070BDF8B5C0B231
:101980004FF00131F84C41431948657901602179E4
:1019900045EA01214A1E7D2A01D303200AE062881C
:1019A0004FF6FE7612BA120C5318013B3340322B1D
:1019B00004D30220FFF732FF0020F8BDEC4B64781F
:1019C0006D0005269D705C70002400251E7041B1DD
:1019D00097B25E19013902350132C75DF470377173
:1019E000F5E7E348E91C00F083F80120F8BD00BFEB
:1019F000000100202DE9F047344E3079777947EA2D
:101A00000024601EB0F5FA6F01D303200DE0B0781A
:101A100096F803804FF6F87148EA002909EB0400B4
:101A200001380840C82805D30220FFF7F7FE002040
:101A3000BDE8F087DFF898A0FD210AF10300FEF76A
:101A4000C3FB052017F0070C4FEAD9024FF000073F
:101A50004FF003030FF27C0E8AF8000018BF4FF01E
:101A6000010C0CEBD4018AF8021071788AF801108D
:101A700008F0070114B31EF802608DB21AF80300D3
:101A80000131062FA4F1010426FA05F505F0010540
:101A900005FA07F540EA050007F101050AF8030019
:101AA00088B2C8BF0133072888BF0132062FC8BFDC
:101AB00000252F46072888BF0021DBE7044803EBF9
:101AC0000C0100F015F80120BDE8F08704010020AA
:101AD00004020020499CAA55CCA366AF60BCCC6C24
:101AE00053FF00553C0FF08F5499F80D2A00000069
:101AF00070B50D4689B20646FFF7C6FD0A4C705315
:101B0000102101222046FEF75FFDA81C31464FF44C
:101B10007A7382B20548FFF7D8FA204610210022D6
:101B2000BDE87040FEF750BD000801404C030020A6
:101B30002DE9F041DFF8308298F8042098F805305C
:101B400043EA0220441E7B2C01D303200DE098F8C9
:101B500002C098F803E04FF6FE774EEA0C263418E0
:101B6000013C3C40312C05D90220FFF757FE0020F4
:101B7000BDE8F0817D4C08F1070748B137F8021B3A
:101B8000B5B20138013609BA090C24F81510F4E78A
:101B9000774898F8011005244170062104704371BC
:101BA000027180F803E080F802C0FFF7A1FF012076
:101BB000BDE8F08104010020220000200402002082
:101BC0002DE9FE4FDFF8A0A19AF804109AF80590CD
:101BD00049EA0120421EB2F5F66F01D303200DE061
:101BE0009AF802509AF803604FF6F87446EA052214
:101BF0001318013B2340C82B05D30220FFF70EFE2C
:101C00000020BDE8FE8FDFF80881CDE9006506F011
:101C10000706D708072400234FF0010B029110B3E9
:101C20001AF804E0B2B218F80710013601380BFABE
:101C300002F22EFA03F541EA020CED0708BF21EA91
:101C4000020CB1B208F807C05A1C062BC8BF0134F9
:101C5000072988BF0137062BC8BF00221346072972
:101C600088BF0026DBE742480299052201710099EE
:101C7000027080F80590C170019981709AF8011086
:101C800041700621FFF734FF0120BDE8FE8F00BF41
:101C90000401002004020020F8B533498A78CB788B
:101CA00043EA0220C82804D30220FFF7B7FD002032
:101CB000F8BD0C794D7903F00706C008FF2C08BF6A
:101CC000002D0CD055EA040713D1DFF844C00127DA
:101CD00007FA06F61CF8007027EA060607E0DFF8A8
:101CE00030C0012707FA06F61CF800703E430CF8D6
:101CF00000601F484978052641700621067045712D
:101D00000471C3708270FFF7F3FE0120F8BD00BFBD
:101D10000800002004020020F8B5124801210170DB
:101D200011488178C27842EA0123322B04D3022081
:101D3000FFF774FD0020F8BD057946790B4F447814
:101D400046EA052027F8130009480523817006217B
:101D50000370C270467105714470FFF7C9FE01201F
:101D6000F8BD00BFF2000020040100202200002086
:101D70000402002000000000000000000102030433
:101D800006070809000000000102030400C18140A9
:101D900001C0804101C0804100C1814001C080413B
:101DA00000C1814000C1814001C0804101C080412B
:101DB00000C1814000C1814001C0804100C181401B
:101DC00001C0804101C0804100C1814001C080410B
:101DD00000C1814000C1814001C0804100C18140FB
:101DE00001C0804101C0804100C1814000C18140EB
:101DF00001C0804101C0804100C1814001C08041DB
:101E000000C1814000C1814001C0804101C08041CA
:101E100000C1814000C1814001C0804100C18140BA
:101E200001C0804101C0804100C1814000C18140AA
:101E300001C0804101C0804100C1814001C080419A
:101E400000C1814000C1814001C0804100C181408A
:101E500001C0804101C0804100C1814001C080417A
:101E600000C1814000C1814001C0804101C080416A
:101E700000C1814000C1814001C0804100C181405A
:101E800001C0804101C0804100C1814000C0C1014A
:101E9000C30302C2C60607C705C5C404CC0C0DCDDA
:101EA0000FCFCE0E0ACACB0BC90908C8D81819D94A
:101EB0001BDBDA1A1EDEDF1FDD1D1CDC14D4D5157A
:101EC000D71716D6D21213D311D1D010F03031F16A
:101ED00033F3F23236F6F737F53534F43CFCFD3D9A
:101EE000FF3F3EFEFA3A3BFB39F9F83828E8E9298A
:101EF000EB2B2AEAEE2E2FEF2DEDEC2CE42425E53A
:101F000027E7E62622E2E323E12120E0A06061A1A9
:101F100063A3A26266A6A767A56564A46CACAD6D59
:101F2000AF6F6EAEAA6A6BAB69A9A86878B8B979C9
:101F3000BB7B7ABABE7E7FBF7DBDBC7CB47475B5F9
:101F400077B7B67672B2B373B17170B050909151E9
:101F50009353529296565797559594549C5C5D9D19
:101F60005F9F9E5E5A9A9B5B995958988848498909
:101F70004B8B8A4A4E8E8F4F8D4D4C8C44848545B9
:101F8000874746868242438341818040B01F0008D4
:101F900000000020900000002801000840200008F8
:101FA0009000002008090000440100080000000023
:101FB0000100000010000000499CAA55CCA366AFA8
:101FC00060BCCC6C53FF00553C0FF08F5499F80D5A
:101FD0002A0000005704AE08050D5C11B3150A1A5B
:101FE000611EB8220F273930483CAF3CFA27A44D78
:101FF0000B353528734D9034E73861534957F75FF7
:102000004E64A5686860AA4FC8723969066C0D7A7B
:10201000E07A07875E8BB58F0294E4788E881B8CFC
:10202000FC8C6EB2C5B612BB13A174A52FAA949EE8
:10203000B2C17DBE45A000000024F40000000000F5
:04000005080000ED02
:00000001FF
